{
  "contractName": "T3NFT",
  "abi": [
    {
      "inputs": [],
      "stateMutability": "nonpayable",
      "type": "constructor"
    },
    {
      "anonymous": false,
      "inputs": [
        {
          "indexed": true,
          "internalType": "address",
          "name": "owner",
          "type": "address"
        },
        {
          "indexed": true,
          "internalType": "address",
          "name": "approved",
          "type": "address"
        },
        {
          "indexed": true,
          "internalType": "uint256",
          "name": "tokenId",
          "type": "uint256"
        }
      ],
      "name": "Approval",
      "type": "event"
    },
    {
      "anonymous": false,
      "inputs": [
        {
          "indexed": true,
          "internalType": "address",
          "name": "owner",
          "type": "address"
        },
        {
          "indexed": true,
          "internalType": "address",
          "name": "operator",
          "type": "address"
        },
        {
          "indexed": false,
          "internalType": "bool",
          "name": "approved",
          "type": "bool"
        }
      ],
      "name": "ApprovalForAll",
      "type": "event"
    },
    {
      "anonymous": false,
      "inputs": [
        {
          "indexed": true,
          "internalType": "address",
          "name": "previousOwner",
          "type": "address"
        },
        {
          "indexed": true,
          "internalType": "address",
          "name": "newOwner",
          "type": "address"
        }
      ],
      "name": "OwnershipTransferred",
      "type": "event"
    },
    {
      "anonymous": false,
      "inputs": [
        {
          "indexed": true,
          "internalType": "address",
          "name": "from",
          "type": "address"
        },
        {
          "indexed": true,
          "internalType": "address",
          "name": "to",
          "type": "address"
        },
        {
          "indexed": true,
          "internalType": "uint256",
          "name": "tokenId",
          "type": "uint256"
        }
      ],
      "name": "Transfer",
      "type": "event"
    },
    {
      "inputs": [
        {
          "internalType": "uint256",
          "name": "",
          "type": "uint256"
        }
      ],
      "name": "T3NFT_to_owner",
      "outputs": [
        {
          "internalType": "address",
          "name": "",
          "type": "address"
        }
      ],
      "stateMutability": "view",
      "type": "function",
      "constant": true
    },
    {
      "inputs": [
        {
          "internalType": "address",
          "name": "to",
          "type": "address"
        },
        {
          "internalType": "uint256",
          "name": "tokenId",
          "type": "uint256"
        }
      ],
      "name": "approve",
      "outputs": [],
      "stateMutability": "nonpayable",
      "type": "function"
    },
    {
      "inputs": [
        {
          "internalType": "address",
          "name": "owner",
          "type": "address"
        }
      ],
      "name": "balanceOf",
      "outputs": [
        {
          "internalType": "uint256",
          "name": "",
          "type": "uint256"
        }
      ],
      "stateMutability": "view",
      "type": "function",
      "constant": true
    },
    {
      "inputs": [
        {
          "internalType": "uint256",
          "name": "tokenId",
          "type": "uint256"
        }
      ],
      "name": "getApproved",
      "outputs": [
        {
          "internalType": "address",
          "name": "",
          "type": "address"
        }
      ],
      "stateMutability": "view",
      "type": "function",
      "constant": true
    },
    {
      "inputs": [
        {
          "internalType": "address",
          "name": "owner",
          "type": "address"
        },
        {
          "internalType": "address",
          "name": "operator",
          "type": "address"
        }
      ],
      "name": "isApprovedForAll",
      "outputs": [
        {
          "internalType": "bool",
          "name": "",
          "type": "bool"
        }
      ],
      "stateMutability": "view",
      "type": "function",
      "constant": true
    },
    {
      "inputs": [],
      "name": "name",
      "outputs": [
        {
          "internalType": "string",
          "name": "",
          "type": "string"
        }
      ],
      "stateMutability": "view",
      "type": "function",
      "constant": true
    },
    {
      "inputs": [],
      "name": "owner",
      "outputs": [
        {
          "internalType": "address",
          "name": "",
          "type": "address"
        }
      ],
      "stateMutability": "view",
      "type": "function",
      "constant": true
    },
    {
      "inputs": [
        {
          "internalType": "uint256",
          "name": "tokenId",
          "type": "uint256"
        }
      ],
      "name": "ownerOf",
      "outputs": [
        {
          "internalType": "address",
          "name": "",
          "type": "address"
        }
      ],
      "stateMutability": "view",
      "type": "function",
      "constant": true
    },
    {
      "inputs": [
        {
          "internalType": "uint256",
          "name": "",
          "type": "uint256"
        }
      ],
      "name": "participants",
      "outputs": [
        {
          "internalType": "string",
          "name": "",
          "type": "string"
        }
      ],
      "stateMutability": "view",
      "type": "function",
      "constant": true
    },
    {
      "inputs": [],
      "name": "renounceOwnership",
      "outputs": [],
      "stateMutability": "nonpayable",
      "type": "function"
    },
    {
      "inputs": [
        {
          "internalType": "address",
          "name": "from",
          "type": "address"
        },
        {
          "internalType": "address",
          "name": "to",
          "type": "address"
        },
        {
          "internalType": "uint256",
          "name": "tokenId",
          "type": "uint256"
        }
      ],
      "name": "safeTransferFrom",
      "outputs": [],
      "stateMutability": "nonpayable",
      "type": "function"
    },
    {
      "inputs": [
        {
          "internalType": "address",
          "name": "from",
          "type": "address"
        },
        {
          "internalType": "address",
          "name": "to",
          "type": "address"
        },
        {
          "internalType": "uint256",
          "name": "tokenId",
          "type": "uint256"
        },
        {
          "internalType": "bytes",
          "name": "_data",
          "type": "bytes"
        }
      ],
      "name": "safeTransferFrom",
      "outputs": [],
      "stateMutability": "nonpayable",
      "type": "function"
    },
    {
      "inputs": [
        {
          "internalType": "address",
          "name": "operator",
          "type": "address"
        },
        {
          "internalType": "bool",
          "name": "approved",
          "type": "bool"
        }
      ],
      "name": "setApprovalForAll",
      "outputs": [],
      "stateMutability": "nonpayable",
      "type": "function"
    },
    {
      "inputs": [
        {
          "internalType": "bytes4",
          "name": "interfaceId",
          "type": "bytes4"
        }
      ],
      "name": "supportsInterface",
      "outputs": [
        {
          "internalType": "bool",
          "name": "",
          "type": "bool"
        }
      ],
      "stateMutability": "view",
      "type": "function",
      "constant": true
    },
    {
      "inputs": [],
      "name": "symbol",
      "outputs": [
        {
          "internalType": "string",
          "name": "",
          "type": "string"
        }
      ],
      "stateMutability": "view",
      "type": "function",
      "constant": true
    },
    {
      "inputs": [
        {
          "internalType": "uint256",
          "name": "tokenId",
          "type": "uint256"
        }
      ],
      "name": "tokenURI",
      "outputs": [
        {
          "internalType": "string",
          "name": "",
          "type": "string"
        }
      ],
      "stateMutability": "view",
      "type": "function",
      "constant": true
    },
    {
      "inputs": [
        {
          "internalType": "address",
          "name": "from",
          "type": "address"
        },
        {
          "internalType": "address",
          "name": "to",
          "type": "address"
        },
        {
          "internalType": "uint256",
          "name": "tokenId",
          "type": "uint256"
        }
      ],
      "name": "transferFrom",
      "outputs": [],
      "stateMutability": "nonpayable",
      "type": "function"
    },
    {
      "inputs": [
        {
          "internalType": "address",
          "name": "newOwner",
          "type": "address"
        }
      ],
      "name": "transferOwnership",
      "outputs": [],
      "stateMutability": "nonpayable",
      "type": "function"
    },
    {
      "inputs": [
        {
          "internalType": "string",
          "name": "tokenURI",
          "type": "string"
        },
        {
          "internalType": "string",
          "name": "ppl",
          "type": "string"
        }
      ],
      "name": "mintT3NFT",
      "outputs": [
        {
          "internalType": "uint256",
          "name": "",
          "type": "uint256"
        }
      ],
      "stateMutability": "nonpayable",
      "type": "function"
    },
    {
      "inputs": [],
      "name": "currentNum",
      "outputs": [
        {
          "internalType": "uint256",
          "name": "",
          "type": "uint256"
        }
      ],
      "stateMutability": "view",
      "type": "function",
      "constant": true
    }
  ],
  "bytecode": "0x60806040523480156200001157600080fd5b506040518060400160405280600581526020017f54334e46540000000000000000000000000000000000000000000000000000008152506040518060400160405280600381526020017f5433540000000000000000000000000000000000000000000000000000000000815250816000908051906020019062000096929190620001a6565b508060019080519060200190620000af929190620001a6565b505050620000d2620000c6620000d860201b60201c565b620000e060201b60201c565b620002bb565b600033905090565b6000600760009054906101000a900473ffffffffffffffffffffffffffffffffffffffff16905081600760006101000a81548173ffffffffffffffffffffffffffffffffffffffff021916908373ffffffffffffffffffffffffffffffffffffffff1602179055508173ffffffffffffffffffffffffffffffffffffffff168173ffffffffffffffffffffffffffffffffffffffff167f8be0079c531659141344cd1fd0a4f28419497f9722a3daafe3b4186f6b6457e060405160405180910390a35050565b828054620001b49062000285565b90600052602060002090601f016020900481019282620001d8576000855562000224565b82601f10620001f357805160ff191683800117855562000224565b8280016001018555821562000224579182015b828111156200022357825182559160200191906001019062000206565b5b50905062000233919062000237565b5090565b5b808211156200025257600081600090555060010162000238565b5090565b7f4e487b7100000000000000000000000000000000000000000000000000000000600052602260045260246000fd5b600060028204905060018216806200029e57607f821691505b60208210811415620002b557620002b462000256565b5b50919050565b61322a80620002cb6000396000f3fe608060405234801561001057600080fd5b506004361061012c5760003560e01c806370a08231116100ad578063b88d4fde11610071578063b88d4fde14610343578063bf72c5901461035f578063c87b56dd1461038f578063e985e9c5146103bf578063f2fde38b146103ef5761012c565b806370a08231146102b1578063715018a6146102e15780638da5cb5b146102eb57806395d89b4114610309578063a22cb465146103275761012c565b806335c1d349116100f457806335c1d349146101e757806342842e0e1461021757806356b1103d146102335780636352211e1461025157806366551779146102815761012c565b806301ffc9a71461013157806306fdde0314610161578063081812fc1461017f578063095ea7b3146101af57806323b872dd146101cb575b600080fd5b61014b60048036038101906101469190611e72565b61040b565b6040516101589190611eba565b60405180910390f35b6101696104ed565b6040516101769190611f6e565b60405180910390f35b61019960048036038101906101949190611fc6565b61057f565b6040516101a69190612034565b60405180910390f35b6101c960048036038101906101c4919061207b565b610604565b005b6101e560048036038101906101e091906120bb565b61071c565b005b61020160048036038101906101fc9190611fc6565b61077c565b60405161020e9190611f6e565b60405180910390f35b610231600480360381019061022c91906120bb565b61081c565b005b61023b61083c565b604051610248919061211d565b60405180910390f35b61026b60048036038101906102669190611fc6565b61084d565b6040516102789190612034565b60405180910390f35b61029b6004803603810190610296919061226d565b6108ff565b6040516102a8919061211d565b60405180910390f35b6102cb60048036038101906102c691906122e5565b610a2d565b6040516102d8919061211d565b60405180910390f35b6102e9610ae5565b005b6102f3610b6d565b6040516103009190612034565b60405180910390f35b610311610b97565b60405161031e9190611f6e565b60405180910390f35b610341600480360381019061033c919061233e565b610c29565b005b61035d6004803603810190610358919061241f565b610c3f565b005b61037960048036038101906103749190611fc6565b610ca1565b6040516103869190612034565b60405180910390f35b6103a960048036038101906103a49190611fc6565b610cd4565b6040516103b69190611f6e565b60405180910390f35b6103d960048036038101906103d491906124a2565b610e26565b6040516103e69190611eba565b60405180910390f35b610409600480360381019061040491906122e5565b610eba565b005b60007f80ac58cd000000000000000000000000000000000000000000000000000000007bffffffffffffffffffffffffffffffffffffffffffffffffffffffff1916827bffffffffffffffffffffffffffffffffffffffffffffffffffffffff191614806104d657507f5b5e139f000000000000000000000000000000000000000000000000000000007bffffffffffffffffffffffffffffffffffffffffffffffffffffffff1916827bffffffffffffffffffffffffffffffffffffffffffffffffffffffff1916145b806104e657506104e582610fb2565b5b9050919050565b6060600080546104fc90612511565b80601f016020809104026020016040519081016040528092919081815260200182805461052890612511565b80156105755780601f1061054a57610100808354040283529160200191610575565b820191906000526020600020905b81548152906001019060200180831161055857829003601f168201915b5050505050905090565b600061058a8261101c565b6105c9576040517f08c379a00000000000000000000000000000000000000000000000000000000081526004016105c0906125b5565b60405180910390fd5b6004600083815260200190815260200160002060009054906101000a900473ffffffffffffffffffffffffffffffffffffffff169050919050565b600061060f8261084d565b90508073ffffffffffffffffffffffffffffffffffffffff168373ffffffffffffffffffffffffffffffffffffffff161415610680576040517f08c379a000000000000000000000000000000000000000000000000000000000815260040161067790612647565b60405180910390fd5b8073ffffffffffffffffffffffffffffffffffffffff1661069f611088565b73ffffffffffffffffffffffffffffffffffffffff1614806106ce57506106cd816106c8611088565b610e26565b5b61070d576040517f08c379a0000000000000000000000000000000000000000000000000000000008152600401610704906126d9565b60405180910390fd5b6107178383611090565b505050565b61072d610727611088565b82611149565b61076c576040517f08c379a00000000000000000000000000000000000000000000000000000000081526004016107639061276b565b60405180910390fd5b610777838383611227565b505050565b600a602052806000526040600020600091509050805461079b90612511565b80601f01602080910402602001604051908101604052809291908181526020018280546107c790612511565b80156108145780601f106107e957610100808354040283529160200191610814565b820191906000526020600020905b8154815290600101906020018083116107f757829003601f168201915b505050505081565b61083783838360405180602001604052806000815250610c3f565b505050565b6000610848600861148e565b905090565b6000806002600084815260200190815260200160002060009054906101000a900473ffffffffffffffffffffffffffffffffffffffff169050600073ffffffffffffffffffffffffffffffffffffffff168173ffffffffffffffffffffffffffffffffffffffff1614156108f6576040517f08c379a00000000000000000000000000000000000000000000000000000000081526004016108ed906127fd565b60405180910390fd5b80915050919050565b6000610909611088565b73ffffffffffffffffffffffffffffffffffffffff16610927610b6d565b73ffffffffffffffffffffffffffffffffffffffff161461097d576040517f08c379a000000000000000000000000000000000000000000000000000000000815260040161097490612869565b60405180910390fd5b610987600861149c565b6000610993600861148e565b9050336009600083815260200190815260200160002060006101000a81548173ffffffffffffffffffffffffffffffffffffffff021916908373ffffffffffffffffffffffffffffffffffffffff16021790555082600a60008381526020019081526020016000209080519060200190610a0e929190611d63565b50610a1933826114b2565b610a23818561168c565b8091505092915050565b60008073ffffffffffffffffffffffffffffffffffffffff168273ffffffffffffffffffffffffffffffffffffffff161415610a9e576040517f08c379a0000000000000000000000000000000000000000000000000000000008152600401610a95906128fb565b60405180910390fd5b600360008373ffffffffffffffffffffffffffffffffffffffff1673ffffffffffffffffffffffffffffffffffffffff168152602001908152602001600020549050919050565b610aed611088565b73ffffffffffffffffffffffffffffffffffffffff16610b0b610b6d565b73ffffffffffffffffffffffffffffffffffffffff1614610b61576040517f08c379a0000000000000000000000000000000000000000000000000000000008152600401610b5890612869565b60405180910390fd5b610b6b6000611700565b565b6000600760009054906101000a900473ffffffffffffffffffffffffffffffffffffffff16905090565b606060018054610ba690612511565b80601f0160208091040260200160405190810160405280929190818152602001828054610bd290612511565b8015610c1f5780601f10610bf457610100808354040283529160200191610c1f565b820191906000526020600020905b815481529060010190602001808311610c0257829003601f168201915b5050505050905090565b610c3b610c34611088565b83836117c6565b5050565b610c50610c4a611088565b83611149565b610c8f576040517f08c379a0000000000000000000000000000000000000000000000000000000008152600401610c869061276b565b60405180910390fd5b610c9b84848484611933565b50505050565b60096020528060005260406000206000915054906101000a900473ffffffffffffffffffffffffffffffffffffffff1681565b6060610cdf8261101c565b610d1e576040517f08c379a0000000000000000000000000000000000000000000000000000000008152600401610d159061298d565b60405180910390fd5b6000600660008481526020019081526020016000208054610d3e90612511565b80601f0160208091040260200160405190810160405280929190818152602001828054610d6a90612511565b8015610db75780601f10610d8c57610100808354040283529160200191610db7565b820191906000526020600020905b815481529060010190602001808311610d9a57829003601f168201915b505050505090506000610dc861198f565b9050600081511415610dde578192505050610e21565b600082511115610e13578082604051602001610dfb9291906129e9565b60405160208183030381529060405292505050610e21565b610e1c846119a6565b925050505b919050565b6000600560008473ffffffffffffffffffffffffffffffffffffffff1673ffffffffffffffffffffffffffffffffffffffff16815260200190815260200160002060008373ffffffffffffffffffffffffffffffffffffffff1673ffffffffffffffffffffffffffffffffffffffff16815260200190815260200160002060009054906101000a900460ff16905092915050565b610ec2611088565b73ffffffffffffffffffffffffffffffffffffffff16610ee0610b6d565b73ffffffffffffffffffffffffffffffffffffffff1614610f36576040517f08c379a0000000000000000000000000000000000000000000000000000000008152600401610f2d90612869565b60405180910390fd5b600073ffffffffffffffffffffffffffffffffffffffff168173ffffffffffffffffffffffffffffffffffffffff161415610fa6576040517f08c379a0000000000000000000000000000000000000000000000000000000008152600401610f9d90612a7f565b60405180910390fd5b610faf81611700565b50565b60007f01ffc9a7000000000000000000000000000000000000000000000000000000007bffffffffffffffffffffffffffffffffffffffffffffffffffffffff1916827bffffffffffffffffffffffffffffffffffffffffffffffffffffffff1916149050919050565b60008073ffffffffffffffffffffffffffffffffffffffff166002600084815260200190815260200160002060009054906101000a900473ffffffffffffffffffffffffffffffffffffffff1673ffffffffffffffffffffffffffffffffffffffff1614159050919050565b600033905090565b816004600083815260200190815260200160002060006101000a81548173ffffffffffffffffffffffffffffffffffffffff021916908373ffffffffffffffffffffffffffffffffffffffff160217905550808273ffffffffffffffffffffffffffffffffffffffff166111038361084d565b73ffffffffffffffffffffffffffffffffffffffff167f8c5be1e5ebec7d5bd14f71427d1e84f3dd0314c0f7b2291e5b200ac8c7c3b92560405160405180910390a45050565b60006111548261101c565b611193576040517f08c379a000000000000000000000000000000000000000000000000000000000815260040161118a90612b11565b60405180910390fd5b600061119e8361084d565b90508073ffffffffffffffffffffffffffffffffffffffff168473ffffffffffffffffffffffffffffffffffffffff16148061120d57508373ffffffffffffffffffffffffffffffffffffffff166111f58461057f565b73ffffffffffffffffffffffffffffffffffffffff16145b8061121e575061121d8185610e26565b5b91505092915050565b8273ffffffffffffffffffffffffffffffffffffffff166112478261084d565b73ffffffffffffffffffffffffffffffffffffffff161461129d576040517f08c379a000000000000000000000000000000000000000000000000000000000815260040161129490612ba3565b60405180910390fd5b600073ffffffffffffffffffffffffffffffffffffffff168273ffffffffffffffffffffffffffffffffffffffff16141561130d576040517f08c379a000000000000000000000000000000000000000000000000000000000815260040161130490612c35565b60405180910390fd5b611318838383611a4d565b611323600082611090565b6001600360008573ffffffffffffffffffffffffffffffffffffffff1673ffffffffffffffffffffffffffffffffffffffff16815260200190815260200160002060008282546113739190612c84565b925050819055506001600360008473ffffffffffffffffffffffffffffffffffffffff1673ffffffffffffffffffffffffffffffffffffffff16815260200190815260200160002060008282546113ca9190612cb8565b92505081905550816002600083815260200190815260200160002060006101000a81548173ffffffffffffffffffffffffffffffffffffffff021916908373ffffffffffffffffffffffffffffffffffffffff160217905550808273ffffffffffffffffffffffffffffffffffffffff168473ffffffffffffffffffffffffffffffffffffffff167fddf252ad1be2c89b69c2b068fc378daa952ba7f163c4a11628f55a4df523b3ef60405160405180910390a4611489838383611a52565b505050565b600081600001549050919050565b6001816000016000828254019250508190555050565b600073ffffffffffffffffffffffffffffffffffffffff168273ffffffffffffffffffffffffffffffffffffffff161415611522576040517f08c379a000000000000000000000000000000000000000000000000000000000815260040161151990612d5a565b60405180910390fd5b61152b8161101c565b1561156b576040517f08c379a000000000000000000000000000000000000000000000000000000000815260040161156290612dc6565b60405180910390fd5b61157760008383611a4d565b6001600360008473ffffffffffffffffffffffffffffffffffffffff1673ffffffffffffffffffffffffffffffffffffffff16815260200190815260200160002060008282546115c79190612cb8565b92505081905550816002600083815260200190815260200160002060006101000a81548173ffffffffffffffffffffffffffffffffffffffff021916908373ffffffffffffffffffffffffffffffffffffffff160217905550808273ffffffffffffffffffffffffffffffffffffffff16600073ffffffffffffffffffffffffffffffffffffffff167fddf252ad1be2c89b69c2b068fc378daa952ba7f163c4a11628f55a4df523b3ef60405160405180910390a461168860008383611a52565b5050565b6116958261101c565b6116d4576040517f08c379a00000000000000000000000000000000000000000000000000000000081526004016116cb90612e58565b60405180910390fd5b806006600084815260200190815260200160002090805190602001906116fb929190611d63565b505050565b6000600760009054906101000a900473ffffffffffffffffffffffffffffffffffffffff16905081600760006101000a81548173ffffffffffffffffffffffffffffffffffffffff021916908373ffffffffffffffffffffffffffffffffffffffff1602179055508173ffffffffffffffffffffffffffffffffffffffff168173ffffffffffffffffffffffffffffffffffffffff167f8be0079c531659141344cd1fd0a4f28419497f9722a3daafe3b4186f6b6457e060405160405180910390a35050565b8173ffffffffffffffffffffffffffffffffffffffff168373ffffffffffffffffffffffffffffffffffffffff161415611835576040517f08c379a000000000000000000000000000000000000000000000000000000000815260040161182c90612ec4565b60405180910390fd5b80600560008573ffffffffffffffffffffffffffffffffffffffff1673ffffffffffffffffffffffffffffffffffffffff16815260200190815260200160002060008473ffffffffffffffffffffffffffffffffffffffff1673ffffffffffffffffffffffffffffffffffffffff16815260200190815260200160002060006101000a81548160ff0219169083151502179055508173ffffffffffffffffffffffffffffffffffffffff168373ffffffffffffffffffffffffffffffffffffffff167f17307eab39ab6107e8899845ad3d59bd9653f200f220920489ca2b5937696c31836040516119269190611eba565b60405180910390a3505050565b61193e848484611227565b61194a84848484611a57565b611989576040517f08c379a000000000000000000000000000000000000000000000000000000000815260040161198090612f56565b60405180910390fd5b50505050565b606060405180602001604052806000815250905090565b60606119b18261101c565b6119f0576040517f08c379a00000000000000000000000000000000000000000000000000000000081526004016119e790612fe8565b60405180910390fd5b60006119fa61198f565b90506000815111611a1a5760405180602001604052806000815250611a45565b80611a2484611bdf565b604051602001611a359291906129e9565b6040516020818303038152906040525b915050919050565b505050565b505050565b6000611a788473ffffffffffffffffffffffffffffffffffffffff16611d40565b15611bd2578373ffffffffffffffffffffffffffffffffffffffff1663150b7a02611aa1611088565b8786866040518563ffffffff1660e01b8152600401611ac3949392919061305d565b6020604051808303816000875af1925050508015611aff57506040513d601f19601f82011682018060405250810190611afc91906130be565b60015b611b82573d8060008114611b2f576040519150601f19603f3d011682016040523d82523d6000602084013e611b34565b606091505b50600081511415611b7a576040517f08c379a0000000000000000000000000000000000000000000000000000000008152600401611b7190612f56565b60405180910390fd5b805181602001fd5b63150b7a0260e01b7bffffffffffffffffffffffffffffffffffffffffffffffffffffffff1916817bffffffffffffffffffffffffffffffffffffffffffffffffffffffff191614915050611bd7565b600190505b949350505050565b60606000821415611c27576040518060400160405280600181526020017f30000000000000000000000000000000000000000000000000000000000000008152509050611d3b565b600082905060005b60008214611c59578080611c42906130eb565b915050600a82611c529190613163565b9150611c2f565b60008167ffffffffffffffff811115611c7557611c74612142565b5b6040519080825280601f01601f191660200182016040528015611ca75781602001600182028036833780820191505090505b5090505b60008514611d3457600182611cc09190612c84565b9150600a85611ccf9190613194565b6030611cdb9190612cb8565b60f81b818381518110611cf157611cf06131c5565b5b60200101907effffffffffffffffffffffffffffffffffffffffffffffffffffffffffffff1916908160001a905350600a85611d2d9190613163565b9450611cab565b8093505050505b919050565b6000808273ffffffffffffffffffffffffffffffffffffffff163b119050919050565b828054611d6f90612511565b90600052602060002090601f016020900481019282611d915760008555611dd8565b82601f10611daa57805160ff1916838001178555611dd8565b82800160010185558215611dd8579182015b82811115611dd7578251825591602001919060010190611dbc565b5b509050611de59190611de9565b5090565b5b80821115611e02576000816000905550600101611dea565b5090565b6000604051905090565b600080fd5b600080fd5b60007fffffffff0000000000000000000000000000000000000000000000000000000082169050919050565b611e4f81611e1a565b8114611e5a57600080fd5b50565b600081359050611e6c81611e46565b92915050565b600060208284031215611e8857611e87611e10565b5b6000611e9684828501611e5d565b91505092915050565b60008115159050919050565b611eb481611e9f565b82525050565b6000602082019050611ecf6000830184611eab565b92915050565b600081519050919050565b600082825260208201905092915050565b60005b83811015611f0f578082015181840152602081019050611ef4565b83811115611f1e576000848401525b50505050565b6000601f19601f8301169050919050565b6000611f4082611ed5565b611f4a8185611ee0565b9350611f5a818560208601611ef1565b611f6381611f24565b840191505092915050565b60006020820190508181036000830152611f888184611f35565b905092915050565b6000819050919050565b611fa381611f90565b8114611fae57600080fd5b50565b600081359050611fc081611f9a565b92915050565b600060208284031215611fdc57611fdb611e10565b5b6000611fea84828501611fb1565b91505092915050565b600073ffffffffffffffffffffffffffffffffffffffff82169050919050565b600061201e82611ff3565b9050919050565b61202e81612013565b82525050565b60006020820190506120496000830184612025565b92915050565b61205881612013565b811461206357600080fd5b50565b6000813590506120758161204f565b92915050565b6000806040838503121561209257612091611e10565b5b60006120a085828601612066565b92505060206120b185828601611fb1565b9150509250929050565b6000806000606084860312156120d4576120d3611e10565b5b60006120e286828701612066565b93505060206120f386828701612066565b925050604061210486828701611fb1565b9150509250925092565b61211781611f90565b82525050565b6000602082019050612132600083018461210e565b92915050565b600080fd5b600080fd5b7f4e487b7100000000000000000000000000000000000000000000000000000000600052604160045260246000fd5b61217a82611f24565b810181811067ffffffffffffffff8211171561219957612198612142565b5b80604052505050565b60006121ac611e06565b90506121b88282612171565b919050565b600067ffffffffffffffff8211156121d8576121d7612142565b5b6121e182611f24565b9050602081019050919050565b82818337600083830152505050565b600061221061220b846121bd565b6121a2565b90508281526020810184848401111561222c5761222b61213d565b5b6122378482856121ee565b509392505050565b600082601f83011261225457612253612138565b5b81356122648482602086016121fd565b91505092915050565b6000806040838503121561228457612283611e10565b5b600083013567ffffffffffffffff8111156122a2576122a1611e15565b5b6122ae8582860161223f565b925050602083013567ffffffffffffffff8111156122cf576122ce611e15565b5b6122db8582860161223f565b9150509250929050565b6000602082840312156122fb576122fa611e10565b5b600061230984828501612066565b91505092915050565b61231b81611e9f565b811461232657600080fd5b50565b60008135905061233881612312565b92915050565b6000806040838503121561235557612354611e10565b5b600061236385828601612066565b925050602061237485828601612329565b9150509250929050565b600067ffffffffffffffff82111561239957612398612142565b5b6123a282611f24565b9050602081019050919050565b60006123c26123bd8461237e565b6121a2565b9050828152602081018484840111156123de576123dd61213d565b5b6123e98482856121ee565b509392505050565b600082601f83011261240657612405612138565b5b81356124168482602086016123af565b91505092915050565b6000806000806080858703121561243957612438611e10565b5b600061244787828801612066565b945050602061245887828801612066565b935050604061246987828801611fb1565b925050606085013567ffffffffffffffff81111561248a57612489611e15565b5b612496878288016123f1565b91505092959194509250565b600080604083850312156124b9576124b8611e10565b5b60006124c785828601612066565b92505060206124d885828601612066565b9150509250929050565b7f4e487b7100000000000000000000000000000000000000000000000000000000600052602260045260246000fd5b6000600282049050600182168061252957607f821691505b6020821081141561253d5761253c6124e2565b5b50919050565b7f4552433732313a20617070726f76656420717565727920666f72206e6f6e657860008201527f697374656e7420746f6b656e0000000000000000000000000000000000000000602082015250565b600061259f602c83611ee0565b91506125aa82612543565b604082019050919050565b600060208201905081810360008301526125ce81612592565b9050919050565b7f4552433732313a20617070726f76616c20746f2063757272656e74206f776e6560008201527f7200000000000000000000000000000000000000000000000000000000000000602082015250565b6000612631602183611ee0565b915061263c826125d5565b604082019050919050565b6000602082019050818103600083015261266081612624565b9050919050565b7f4552433732313a20617070726f76652063616c6c6572206973206e6f74206f7760008201527f6e6572206e6f7220617070726f76656420666f7220616c6c0000000000000000602082015250565b60006126c3603883611ee0565b91506126ce82612667565b604082019050919050565b600060208201905081810360008301526126f2816126b6565b9050919050565b7f4552433732313a207472616e736665722063616c6c6572206973206e6f74206f60008201527f776e6572206e6f7220617070726f766564000000000000000000000000000000602082015250565b6000612755603183611ee0565b9150612760826126f9565b604082019050919050565b6000602082019050818103600083015261278481612748565b9050919050565b7f4552433732313a206f776e657220717565727920666f72206e6f6e657869737460008201527f656e7420746f6b656e0000000000000000000000000000000000000000000000602082015250565b60006127e7602983611ee0565b91506127f28261278b565b604082019050919050565b60006020820190508181036000830152612816816127da565b9050919050565b7f4f776e61626c653a2063616c6c6572206973206e6f7420746865206f776e6572600082015250565b6000612853602083611ee0565b915061285e8261281d565b602082019050919050565b6000602082019050818103600083015261288281612846565b9050919050565b7f4552433732313a2062616c616e636520717565727920666f7220746865207a6560008201527f726f206164647265737300000000000000000000000000000000000000000000602082015250565b60006128e5602a83611ee0565b91506128f082612889565b604082019050919050565b60006020820190508181036000830152612914816128d8565b9050919050565b7f45524337323155524953746f726167653a2055524920717565727920666f722060008201527f6e6f6e6578697374656e7420746f6b656e000000000000000000000000000000602082015250565b6000612977603183611ee0565b91506129828261291b565b604082019050919050565b600060208201905081810360008301526129a68161296a565b9050919050565b600081905092915050565b60006129c382611ed5565b6129cd81856129ad565b93506129dd818560208601611ef1565b80840191505092915050565b60006129f582856129b8565b9150612a0182846129b8565b91508190509392505050565b7f4f776e61626c653a206e6577206f776e657220697320746865207a65726f206160008201527f6464726573730000000000000000000000000000000000000000000000000000602082015250565b6000612a69602683611ee0565b9150612a7482612a0d565b604082019050919050565b60006020820190508181036000830152612a9881612a5c565b9050919050565b7f4552433732313a206f70657261746f7220717565727920666f72206e6f6e657860008201527f697374656e7420746f6b656e0000000000000000000000000000000000000000602082015250565b6000612afb602c83611ee0565b9150612b0682612a9f565b604082019050919050565b60006020820190508181036000830152612b2a81612aee565b9050919050565b7f4552433732313a207472616e736665722066726f6d20696e636f72726563742060008201527f6f776e6572000000000000000000000000000000000000000000000000000000602082015250565b6000612b8d602583611ee0565b9150612b9882612b31565b604082019050919050565b60006020820190508181036000830152612bbc81612b80565b9050919050565b7f4552433732313a207472616e7366657220746f20746865207a65726f2061646460008201527f7265737300000000000000000000000000000000000000000000000000000000602082015250565b6000612c1f602483611ee0565b9150612c2a82612bc3565b604082019050919050565b60006020820190508181036000830152612c4e81612c12565b9050919050565b7f4e487b7100000000000000000000000000000000000000000000000000000000600052601160045260246000fd5b6000612c8f82611f90565b9150612c9a83611f90565b925082821015612cad57612cac612c55565b5b828203905092915050565b6000612cc382611f90565b9150612cce83611f90565b9250827fffffffffffffffffffffffffffffffffffffffffffffffffffffffffffffffff03821115612d0357612d02612c55565b5b828201905092915050565b7f4552433732313a206d696e7420746f20746865207a65726f2061646472657373600082015250565b6000612d44602083611ee0565b9150612d4f82612d0e565b602082019050919050565b60006020820190508181036000830152612d7381612d37565b9050919050565b7f4552433732313a20746f6b656e20616c7265616479206d696e74656400000000600082015250565b6000612db0601c83611ee0565b9150612dbb82612d7a565b602082019050919050565b60006020820190508181036000830152612ddf81612da3565b9050919050565b7f45524337323155524953746f726167653a2055524920736574206f66206e6f6e60008201527f6578697374656e7420746f6b656e000000000000000000000000000000000000602082015250565b6000612e42602e83611ee0565b9150612e4d82612de6565b604082019050919050565b60006020820190508181036000830152612e7181612e35565b9050919050565b7f4552433732313a20617070726f766520746f2063616c6c657200000000000000600082015250565b6000612eae601983611ee0565b9150612eb982612e78565b602082019050919050565b60006020820190508181036000830152612edd81612ea1565b9050919050565b7f4552433732313a207472616e7366657220746f206e6f6e20455243373231526560008201527f63656976657220696d706c656d656e7465720000000000000000000000000000602082015250565b6000612f40603283611ee0565b9150612f4b82612ee4565b604082019050919050565b60006020820190508181036000830152612f6f81612f33565b9050919050565b7f4552433732314d657461646174613a2055524920717565727920666f72206e6f60008201527f6e6578697374656e7420746f6b656e0000000000000000000000000000000000602082015250565b6000612fd2602f83611ee0565b9150612fdd82612f76565b604082019050919050565b6000602082019050818103600083015261300181612fc5565b9050919050565b600081519050919050565b600082825260208201905092915050565b600061302f82613008565b6130398185613013565b9350613049818560208601611ef1565b61305281611f24565b840191505092915050565b60006080820190506130726000830187612025565b61307f6020830186612025565b61308c604083018561210e565b818103606083015261309e8184613024565b905095945050505050565b6000815190506130b881611e46565b92915050565b6000602082840312156130d4576130d3611e10565b5b60006130e2848285016130a9565b91505092915050565b60006130f682611f90565b91507fffffffffffffffffffffffffffffffffffffffffffffffffffffffffffffffff82141561312957613128612c55565b5b600182019050919050565b7f4e487b7100000000000000000000000000000000000000000000000000000000600052601260045260246000fd5b600061316e82611f90565b915061317983611f90565b92508261318957613188613134565b5b828204905092915050565b600061319f82611f90565b91506131aa83611f90565b9250826131ba576131b9613134565b5b828206905092915050565b7f4e487b7100000000000000000000000000000000000000000000000000000000600052603260045260246000fdfea2646970667358221220de91874139c5ed13be3fb20a2996e9d519c6ca92d78c6d89e6a3a05b710bdc6a64736f6c634300080b0033",
  "immutableReferences": {},
  "source": "// SPDX-License-Identifier: MIT\n\npragma solidity ^0.8.0;\n\nimport \"@openzeppelin/contracts/token/ERC721/ERC721.sol\";\nimport \"@openzeppelin/contracts/utils/Counters.sol\";\nimport \"@openzeppelin/contracts/access/Ownable.sol\";\nimport \"@openzeppelin/contracts/token/ERC721/extensions/ERC721URIStorage.sol\";\n\n\ncontract T3NFT is ERC721URIStorage, Ownable {\n\n    using Counters for Counters.Counter;\n    Counters.Counter private _tokenIds;\n\n    constructor() ERC721(\"T3NFT\", \"T3T\") {}\n\n    mapping(uint256 => address) public T3NFT_to_owner; // owner is set to backend account\n    mapping(uint256 => string) public participants; // \n\n    function mintT3NFT(string memory tokenURI, string memory ppl) external onlyOwner returns (uint256) {\n        // ppl -> participants list in string\n        // token uri -> nft address\n        _tokenIds.increment(); // 1-based\n        uint newTokenId = _tokenIds.current();\n        T3NFT_to_owner[newTokenId] = msg.sender;\n        participants[newTokenId] = ppl;\n        _mint(msg.sender, newTokenId);\n        _setTokenURI(newTokenId, tokenURI);\n        return newTokenId;\n    }\n\n    function currentNum() public view returns (uint) {\n        return _tokenIds.current();\n    }\n\n}",
  "sourcePath": "/home/jeongdaeyong/Desktop/LastSem/blockchainfield/FieldApplicationofBlockchain/contract/contracts/T3NFT.sol",
  "compiler": {
    "name": "solc",
    "version": "0.8.11+commit.d7f03943.Emscripten.clang"
  },
  "schemaVersion": "3.4.4",
  "updatedAt": "2022-04-19T10:52:39.682Z",
  "networkType": "ethereum",
  "devdoc": {
    "kind": "dev",
    "methods": {
      "approve(address,uint256)": {
        "details": "See {IERC721-approve}."
      },
      "balanceOf(address)": {
        "details": "See {IERC721-balanceOf}."
      },
      "getApproved(uint256)": {
        "details": "See {IERC721-getApproved}."
      },
      "isApprovedForAll(address,address)": {
        "details": "See {IERC721-isApprovedForAll}."
      },
      "name()": {
        "details": "See {IERC721Metadata-name}."
      },
      "owner()": {
        "details": "Returns the address of the current owner."
      },
      "ownerOf(uint256)": {
        "details": "See {IERC721-ownerOf}."
      },
      "renounceOwnership()": {
        "details": "Leaves the contract without owner. It will not be possible to call `onlyOwner` functions anymore. Can only be called by the current owner. NOTE: Renouncing ownership will leave the contract without an owner, thereby removing any functionality that is only available to the owner."
      },
      "safeTransferFrom(address,address,uint256)": {
        "details": "See {IERC721-safeTransferFrom}."
      },
      "safeTransferFrom(address,address,uint256,bytes)": {
        "details": "See {IERC721-safeTransferFrom}."
      },
      "setApprovalForAll(address,bool)": {
        "details": "See {IERC721-setApprovalForAll}."
      },
      "supportsInterface(bytes4)": {
        "details": "See {IERC165-supportsInterface}."
      },
      "symbol()": {
        "details": "See {IERC721Metadata-symbol}."
      },
      "tokenURI(uint256)": {
        "details": "See {IERC721Metadata-tokenURI}."
      },
      "transferFrom(address,address,uint256)": {
        "details": "See {IERC721-transferFrom}."
      },
      "transferOwnership(address)": {
        "details": "Transfers ownership of the contract to a new account (`newOwner`). Can only be called by the current owner."
      }
    },
    "version": 1
  },
  "userdoc": {
    "kind": "user",
    "methods": {},
    "version": 1
  }
}